:10000000B3C7A50093F73700B308C500639207068E
:100010009307300063FEC70493773500130705008C
:100020006398070613F6C8FF930706FE636CF7088C
:10003000637CC702938605009307070003A80600A8
:10004000938747009386460023AE07FFE3E8C7FE89
:100050009307F6FFB387E74093F7C7FF93874700FF
:100060003307F700B385F500636817016780000068
:1000700013070500E37C15FF83C70500130717006E
:1000800093851500A30FF7FEE36817FF6780000054
:1000900083C605001307170093773700A30FD7FE19
:1000A00093851500E38007F883C605001307170042
:1000B00093773700A30FD7FE93851500E39A07FCCB
:1000C0006FF05FF683A6450083A2050083AF85002D
:1000D00003AFC50083AE050103AE450103A385014F
:1000E00003A8C5012322D70083A6050223205700B9
:1000F0002324F7012326E7012328D701232AC70158
:10010000232C6700232E07012320D7021307470261
:0C01100093854502E368F7FA6FF09FF159
:10011C00130101FC232E810213040104232EA4FCE1
:10012C00232CB4FC232AC4FC2328D4FC2326E4FC73
:10013C002324F4FC032704FD832784FD3307F740B5
:10014C008326C4FC832744FDB387F6403307F702AC
:10015C00832644FD8327C4FDB386F640032684FC26
:10016C00832704FDB307F640B387F602B307F740C5
:10017C002326F4FE8327C4FE639607009307000032
:10018C006F0080018327C4FE6356F00093071000B4
:10019C006F00800093072000138507000324C10320
:0801AC0013010104678000004B
:1001B400130101FD232611022324810213040103E8
:1001C400232EA4FC232CB4FC032784FD93072000D6
:1001D40063C6E700930700006F00C0138327C4FDC4
:1001E40003A507008327C4FD83A547008327C4FD17
:1001F4009387870003A607008327C4FD938787009E
:1002040083A647008327C4FD9387070103A707003C
:100214008327C4FD9387070183A74700EFF0DFEF2F
:100224002324A4FE930730002326F4FE6F00800DE0
:100234000327C4FEB70700209387E7FFB307F7003F
:10024400939737000327C4FDB307F70003A50700FE
:100254000327C4FEB70700209387E7FFB307F7001F
:10026400939737000327C4FDB307F70083A547001E
:100274000327C4FEB70700209387F7FFB307F700EF
:10028400939737000327C4FDB307F70003A60700BD
:100294000327C4FEB70700209387F7FFB307F700CF
:1002A400939737000327C4FDB307F70083A64700DD
:1002B4008327C4FE939737000327C4FDB307F700D1
:1002C40003A807008327C4FE939737000327C4FDC0
:1002D400B307F70083A7470013070800EFF0DFE335
:1002E4002322A4FE032744FE832784FE6306F7002B
:1002F400930700006F0000028327C4FE9387170052
:100304002326F4FE0327C4FE832784FDE342F7F289
:1003140093071000138507008320C1020324810280
:080324001301010367800000D2
:10032C00130101FD2326810213040103232EA4FCD7
:10033C00232604FE6F0000018327C4FE9387170059
:10034C002326F4FE8327C4FE939737000327C4FDAE
:10035C00B307F70083A70700E39007FE8327C4FECB
:10036C00138507000324C1021301010367800000F9
:10037C00130101F723261108232481081304010912
:10038C00B70701009387070003AF070083AE470050
:10039C0003AE870003A3C70083A8070103A8470186
:1003AC0003A5870183A5C70103A6070283A64702FD
:1003BC0003A7870283A7C7022328E4FB232AD4FBC5
:1003CC00232CC4FB232E64FA232014FD232204FDCA
:1003DC002324A4FC2326B4FC2328C4FC232AD4FC09
:1003EC00232CE4FC232EF4FC930704FB1385070059
:1003FC00EFF01FF32326A4FE930704FB8325C4FE12
:10040C0013850700EFF05FDA2324A4FEB707010081
:10041C0013870703930784F79306070013078003DA
:10042C00130607009385060013850700EFF09FBCA9
:10043C00930784F713850700EFF09FEE2322A4FEA9
:10044C00930784F7832544FE13850700EFF0DFD56F
:10045C002320A4FE93070000138507008320C10806
:0C046C00032481081301010967800000CF
:020000021000EC
:1000000001000000020000000300000004000000E6
:1000100005000000060000000700000008000000C6
:10002000090000000A0000000000000000000000BD
:1000300001000000020000000300000004000000B6
:100040000500000006000000070000000800000096
:10005000090000000A0000000B0000000C00000076
:08006000000000000000000098
:040000030000037C7A
:00000001FF
